:020000040800F2
:10000000101D0020752E00080108000803080008D4
:10001000070800080B0800080F080008000000008F
:1000200000000000000000000000000013080008AD
:10003000150800080000000017080008190800084B
:100040008F2E00088F2E00088F2E00088F2E00089C
:100050008F2E00088F2E00088F2E00088F2E00088C
:100060008F2E00088F2E00088F2E00088F2E00087C
:100070008F2E00088F2E00088F2E00088F2E00086C
:100080008F2E00088F2E00088F2E00088F2E00085C
:100090008F2E00088F2E00088F2E00088F2E00084C
:1000A0008F2E00088F2E00088F2E00088F2E00083C
:1000B0008F2E00088F2E00088F2E00088F2E00082C
:1000C0008F2E00088F2E00088F2E00088F2E00081C
:1000D0008F2E00088F2E00088F2E00088F2E00080C
:1000E0008F2E00088F2E00088F2E00088F2E0008FC
:1000F0008F2E00088F2E00088F2E00088F2E0008EC
:100100008F2E00088F2E00088F2E00088F2E0008DB
:100110008F2E00088F2E00088F2E00088F2E0008CB
:100120008F2E00088F2E00088F2E00088F2E0008BB
:1001300000F002F800F05AF80AA090E8000C82449F
:100140008344AAF10107DA4501D100F04FF8AFF27C
:10015000090EBAE80F0013F0010F18BFFB1A43F0A5
:100160000103184740300000603000000A444FF09F
:10017000000C10F8013B13F0070408BF10F8014B06
:100180001D1108BF10F8015B641E05D010F8016B4B
:10019000641E01F8016BF9D113F0080F1EBF10F8AF
:1001A000014BAD1C0C1B09D16D1E58BF01F801CBD2
:1001B000FAD505E014F8016B01F8016B6D1EF9D555
:1001C0009142D6D37047000000230024002500266A
:1001D000103A28BF78C1FBD8520728BF30C148BFAA
:1001E0000B6070471FB51FBD10B510BD02F065FE56
:1001F0001146FFF7F7FF00F009F802F083FE03B4A1
:10020000FFF7F2FF03BC02F087FE000008B50024F0
:1002100001F0B8FE4FF478400223EF220021009055
:10022000084601F0FBFB4FF478404323EF224121C5
:100230000090002001F0F2FB4FF4784040F23F13B1
:10024000022200210090084601F0E8FB4FF47840BC
:1002500040F23F13EF2200210090ED2001F0DEFB81
:100260004FF4784040F23F13EF22991E0090002097
:1002700001F0D4FB4FF4FC604223ED2203210090F7
:10028000084600F0BBFF4FF47843EF22FE21002028
:1002900001F030FB4FF4FC604FF4A573ED22FF2119
:1002A0000090032000F0AAFFF7A04FF4FC630022A7
:1002B00015210090242001F0E8F9F7A04FF6FF7314
:1002C0001F22502100900A2001F052F9F5A04FF6AC
:1002D000FF731F226E2100900A2001F049F9F4A05B
:1002E0004FF6FF731F228C2100900A2001F040F985
:1002F000F2A04FF6FF731F22AA2100900A2001F0FE
:1003000037F9F1A04FF6FF731F22C82100900A2091
:1003100001F02EF9EFA04FF6FF731F22E6210090A7
:100320000A2001F025F9EEA04FF4FC631F224FF4E0
:10033000827100900A2001F01BF9ECA04FF4FC63DD
:100340001F224FF48C7100900A2001F011F9EEA0E9
:100350004FF4FC631F224FF4967100900A2001F0C5
:1003600007F945E200F019FB05460E2D7ED1ED4858
:100370000078052805DAEB480078401CE949087048
:1003800002E00020E7490870E648007806286ED2AF
:10039000DFE800F0032A517BA2C9CEA04FF6FF731D
:1003A0001F22E62100900A2001F0E2F8BAA04FF6E1
:1003B000FF734FF47842502100900A2001F0D8F8E2
:1003C000D9A04FF6FF734FF4784250210090DC2003
:1003D00001F0CEF8D4A04FF6FF731A46E621009044
:1003E000DC2001F0C5F8C6E0ABA04FF6FF731F227A
:1003F000502100900A2001F0BBF8AAA04FF6FF732D
:100400004FF478426E2100900A2001F0B1F8C6A0A6
:100410004FF6FF734FF478426E210090DC2001F01C
:10042000A7F8C1A04FF6FF731A4650210090DC20B8
:1004300001F09EF89FE09BA04FF6FF731F226E21F4
:1004400000900A2001F094F899A04FF6FF734FF442
:1004500078428C2100900A2001F08AF8B2A04FF671
:10046000FF734FF478428C21009001E084E081E03A
:10047000DC2001F07DF8ACA04FF6FF731A466E2128
:100480000090DC2001F074F875E089A04FF6FF734E
:100490001F228C2100900A2001F06AF887A04FF6F5
:1004A000FF734FF47842AA2100900A2001F060F80F
:1004B0009DA04FF6FF734FF47842AA210090DC20F4
:1004C00001F056F898A04FF6FF731A468C21009061
:1004D000DC2001F04DF84EE078A04FF6FF731F22AC
:1004E000AA2100900A2001F043F877A04FF6FF738D
:1004F0004FF47842C82100900A2001F039F88AA010
:100500004FF6FF734FF47842C8210090DC2001F0D1
:100510002FF885A04FF6FF731A46AA210090DC2021
:1005200001F026F827E068A04FF6FF731F22C821CC
:1005300000900A2001F01CF866A04FF6FF734FF4FC
:100540007842E62100900A2001F012F876A04FF6DA
:10055000FF734FF47842E6210090DC2001F008F8A8
:1005600071A04FF6FF731A46C8210090DC2000F0FE
:10057000FFFF00E000BF04E00C2D02D100F0E2FA22
:100580000446002C71D06748007806286ED2DFE858
:1005900000F00342576EE5F164480461062C36D240
:1005A000DFE804F035030D17212B61A04FF6FF7330
:1005B0001F22502100906E2000F0DAFF28E05EA09C
:1005C0004FF6FF731F22502100906E2000F0D0FFE5
:1005D0001EE05BA04FF6FF731F22502100906E209B
:1005E00000F0C6FF14E058A04FF6FF731F22502101
:1005F00000906E2000F0BCFF0AE055A04FF6FF739C
:100600001F22502100906E2000F0B2FF00E000BFDA
:1006100000BF0024BBE04548C4604FF6FF731F22B3
:100620006E216420009401F0D1F84BA04FF6FF73C7
:100630001F226E210090BC2000F09AFF0024A6E04B
:100640003A4804604FF6FF731F228C216420009407
:1006500001F0BCF840A04FF6FF731F228C210090E0
:10066000BC2000F085FF002491E0C1E08EE02F481F
:1006700044604FF6FF731F22AA216420009401F00A
:10068000A5F8002483E075E0D5FDCFD2D0C5BAC56A
:10069000B7A2C9FAC6F70000B2A8D0CEC4A3CABD9B
:1006A0003A000000B2A8D0CEC6B5C2CA3A000000D7
:1006B000D4D8B2A8C6B5C2CA3A000000D4D8B2A8ED
:1006C000D0F2C1D03A000000D7EEB4F3C6B5C6AB45
:1006D0003A0000002020202020204D413A00000058
:1006E000B0B4BCFCCCE1CABE3A00000031D5FDCFAD
:1006F000D2B2A8202032414D2020202033464D2068
:1007000020203441534B00003550534B20202BC840
:10071000B7C8CF20202AD1A1D4F120202DB7B5BB56
:10072000D8200000010000203C3D0000941600206D
:10073000D5FDCFD2B2A800002020414D20200000DE
:100740002020464D20200000202041534B20000057
:10075000202050534B200000487A00002548846137
:100760004FF6FF731F22C8216420009401F02EF879
:1007700000240CE01F4844614FF6FF731F22E6215E
:100780006420009401F022F8002400E000BF00BFC4
:1007900018480168812001F091FB164841688320C8
:1007A00001F08CFB13488168882001F087FB114918
:1007B000C86802F0E6FB80460F4A104B02F0F4FBDB
:1007C000064602F0B1FB82465146852001F076FBD9
:1007D00008480069411E842001F070FB054841690A
:1007E000822001F06BFB03488169802001F066FBE9
:1007F000B8E5000094160020E17A14AE47E13A40D3
:10080000704700BFFEE700BFFEE700BFFEE700BF86
:10081000FEE77047704770477047000008B5012138
:10082000502001F023FD7020ADF8000003208DF86A
:1008300002008048007818B948208DF8030002E0D3
:1008400010208DF8030069467B4801F0D7FD4FF476
:100850000050ADF8000003208DF8020075480078C4
:1008600018B948208DF8030002E010208DF803002D
:100870006946724801F0C2FD0F20ADF80000032068
:100880008DF802006B48007818B910208DF803002D
:1008900002E048208DF803006946674801F0AEFD8C
:1008A00008BD2DE9F04100260027002400256248FC
:1008B00001F03EFE04464FF40051604801F02FFE67
:1008C00005464FF6F070204040F070015A4801F0A4
:1008D00049FE45F40051594801F044FE022000F061
:1008E000F4F8554801F024FE04464FF400515348F3
:1008F00001F015FE054604F07004702C01D1012DA5
:1009000049D0042000F0F2F84B4801F011FE0446F3
:100910004FF40051494801F002FE054604F070040E
:10092000702C01D1012D34D065B1434801F000FE97
:10093000044604F07004264646F00F013E4801F0DC
:1009400011FE09E070264FF400513C4801F003FE0F
:100950000F21394801F006FE012036490870FFF7E3
:100960005DFF354801F0E4FD044604F00F0703E0A5
:10097000314801F0DDFD044604F00F000F28F7D1E7
:1009800000202C490870FFF749FFF019C0B2BDE8FC
:10099000F081FF20FBE7FF20F9E710B5FFF781FFAB
:1009A00067283CD012DC572831D008DC372826D005
:1009B0003B2826D03D2826D03E2838D125E05B288C
:1009C00027D05D2827D05E2831D126E077280ED0A9
:1009D00006DC6B2825D06D2825D06E2827D124E091
:1009E0007B2806D07D2806D07E2820D105E00F2068
:1009F00010BD0E20FCE70D20FAE70C20F8E70B20D5
:100A0000F6E70920F4E70620F2E70320F0E70020EC
:100A1000EEE70820ECE70520EAE70220E8E70A20F5
:100A2000E6E70720E4E70420E2E70120E0E7FF2013
:100A3000DEE7000000000020001801400010014027
:100A4000704700BF411EC9B20800FBD170470021AA
:100A500000BF082100BF4A1ED2B21100FBD1421EC6
:100A600092B21000F5D1704700BF072100BF0B22E2
:100A700000BF531E9BB21A00FBD14B1E9BB2190044
:100A8000F5D1431E9BB21800EFD1704700BF422141
:100A900000BF1E2200BF531EDBB21A00FBD14B1E4B
:100AA000DBB21900F5D1431EDBB21800EFD170475D
:100AB000652000BF582100BF4A1E92B21100FBD131
:100AC000421E92B21000F5D1704700BF772100BFDF
:100AD000432200BF531E9BB21A00FBD14B1E9BB298
:100AE0001900F5D1431E1800F0D1704700BF40F245
:100AF000712100BF3F2200BF531E9BB21A00FBD1E1
:100B00004B1E9BB21900F5D1431E9BB21800EED1CB
:100B1000704700BF4FF47A7100BF40F2012200BF5E
:100B2000531E9BB21A00FBD14B1E9BB21900F4D18D
:100B3000431EDBB21800EDD1704700E0401E0028D4
:100B4000FCD170472DE9F0478AB000250026002728
:100B5000AA46A8464FF001094FF0010A61A0009093
:100B600063480078C0EB0010502202EB40014FF6C2
:100B7000FF734FF47842642000F0FAFC00BF93E06A
:100B8000FFF70BFF04465A480078002846D10C2C8A
:100B900044D00A2C42D2062C3BD2DFE804F03A03C0
:100BA0000E19242F53A04FF6FF734FF478425021B3
:100BB00000906E2000F0DCFC2CE050A04FF6FF739C
:100BC0004FF47842502100906E2000F0D1FC21E0DB
:100BD0004CA04FF6FF734FF47842502100906E20E6
:100BE00000F0C6FC16E049A04FF6FF734FF47842C0
:100BF000502100906E2000F0BBFC0BE045A04FF6AA
:100C0000FF734FF47842502100906E2000F0B0FC4A
:100C100000E000BF00BF0294012545E00A2C01D28C
:100C2000012000E000200D2C01D1012100E0002175
:100C3000084334D0082D1BD20D2C19D002A840F83F
:100C4000254010F825003030C0B2294A00901278B3
:100C5000C2EB0212502303EB4201EA006432D0B22D
:100C60004FF6FF734FF4784200F0A8FB6D1C1BE0B9
:100C70000D2C19D1C5B16D1E20201D4A009012788F
:100C8000C2EB0212502303EB4201EA006432D0B2FD
:100C90004FF6FF734FF4784200F090FB04E00C2C09
:100CA00002D14FF0000A2E46BAF1010F3FF468AFAF
:100CB00012E0002704E009EB89004FEA40097F1C9D
:100CC000A81BB842F7D8701E02A951F8200000FBFB
:100CD00009884FF00109761E002EEAD140460AB07D
:100CE000BDE8F087202020202020202020200000A8
:100CF00001000020D5FDCFD2B2A800002020414D38
:100D0000202000002020464D2020000020204153BC
:100D10004B200000202050534B20000008B501213B
:100D2000602001F0A3FA4CF6B370ADF80000032088
:100D30008DF8020018208DF803006946FC4801F088
:100D40005DFB4FF68070ADF8000003208DF80200C7
:100D500018208DF803006946F64801F04FFB4FF468
:100D60004050ADF8000003208DF8020010208DF8EF
:100D700003006946EE4801F041FB4FF40051EC4896
:100D800001F0E7FB08BD00B597B00121080201F0B2
:100D900060FA0121084601F069FA02200190002062
:100DA00002900520039000200490059006904FF0DB
:100DB0008050079000200890099008200A90102089
:100DC0000B9000200C900E900F9010904FF48050DC
:100DD0001190002012901390149001A81590169075
:100DE00008A801F0A6FC0121002001F003FE17B0C5
:100DF00000BD22204FF0C041088070474FF0C04234
:100E00001080CD4A11807047CB490880704710B5DB
:100E1000FFF784FFFFF7B7FF4FF48051C44801F09C
:100E200098FB0A20FFF751FE4FF48051C04801F0B3
:100E300092FB0A20FFF749FE4FF48051BC4801F0B5
:100E400088FB0A20FFF741FE4FF6FF70FFF7DCFF3B
:100E500001210020FFF7D2FF4FF480710120FFF73E
:100E6000CDFF41F230010320FFF7C8FF002104202D
:100E7000FFF7C4FF40F207210820FFF7BFFF002162
:100E80000920FFF7BBFF00210A20FFF7B7FF002171
:100E90000C20FFF7B3FF00210D20FFF7AFFF00216B
:100EA0000F20FFF7ABFF40F201110720FFF7A6FF6D
:100EB00041F2B0211020FFF7A1FF07211120FFF719
:100EC0009DFF01211720FFF799FF40F2BB1112206F
:100ED000FFF794FF4FF4E0511320FFF78FFF32200C
:100EE000FFF7F3FD19212920FFF788FF3220FFF7D4
:100EF000ECFD4FF481713020FFF780FF3220FFF7C7
:100F0000E4FD40F621413120FFF778FF40F6223121
:100F10003220FFF773FF42F210613320FFF76EFFBC
:100F200041F60B613420FFF769FF40F604213520BC
:100F3000FFF764FF41F201713620FFF75FFF40F2D7
:100F400017613720FFF75AFF40F205313820FFF7CD
:100F500055FF40F605213920FFF750FF40F60441C8
:100F60003A20FFF74BFF4FF440613B20FFF746FF6D
:100F70000C213C20FFF742FF40F20C513D20FFF7CF
:100F80003DFF4FF401713E20FFF738FF40F204416E
:100F90003F20FFF733FF00215020FFF72FFFEF2105
:100FA0005120FFF72BFF00215220FFF727FF40F2CF
:100FB0003F115320FFF722FF4FF41C516020FFF731
:100FC0001DFF01216120FFF719FF00216A20FFF7B3
:100FD00015FF00218020FFF711FF00218120FFF77E
:100FE0000DFF00218220FFF709FF00218320FFF77A
:100FF00005FF00218420FFF701FF00218520FFF776
:10100000FDFE10219020FFF7F9FE00219220FFF74E
:10101000F5FE40F203119320FFF7F0FE4FF4047148
:101020009520FFF7EBFE00219720FFF7E7FE002158
:101030009820FFF7E3FE45F20841F020FFF7DEFEBF
:101040000521F320FFF7DAFE1F21F420FFF7D6FE7B
:101050000021F020FFF7D2FE40F273110720FFF7C6
:10106000CDFE4FF40051324801F075FAFFF7C1FE92
:1010700010BD3EB500242E480C3000684CF20371C0
:1010800008432B490C3108602A480C3000684FF6A1
:101090008071084327490C310860C914244801F0C5
:1010A00058FA8021224801F056FA1021204801F018
:1010B00052FA10211E4801F04CFA10211C4801F090
:1010C0004AFA10211A4801F044FA194801F030FA9E
:1010D000ADF80800174801F02BFAADF80A00BDF88A
:1010E000080000F4E0604001ADF80000BDF8080021
:1010F0008007000FADF80200BDF80800800BADF8C6
:101100000400BDF80010BDF80A004FF680721040D0
:1011100001EBE000BDF802100844BDF804100844DB
:1011200084B28021024801F014FA20463EBD00003E
:1011300000140140001801400000026010B5034691
:101140000C4619462020FFF759FE21462120FFF7C3
:1011500055FE10BD704730B5014601F01F04C1F3C4
:101160004513CA0AE50205EB43151544A8B230BD84
:1011700070B504460D4629462046FFF7DFFFFFF70E
:1011800038FEFFF776FF0646FFF7E5FF70BD10B5A6
:1011900003460C4600215020FFF730FE581E81B256
:1011A0005120FFF72BFE00215220FFF727FE601E83
:1011B00081B25320FFF722FEFFF71BFE10BD70B572
:1011C0000546002400210846FFF7B8FF4FF4A07140
:1011D000F020FFF7DCFF4FF40061F74801F0B9F9A8
:1011E00000BF03E02846FFF70FFE641CB4F5963FEE
:1011F000F8D38021F04801F0ACF970BD2DE9F0473B
:1012000004460F4615461E46DDF820A03946204606
:10121000FFF794FF21465020FFF7F0FD29465120AB
:10122000FFF7ECFD39465220FFF7E8FD3146532029
:10123000FFF7E4FDFFF7DDFD4FF40061DE4801F04C
:1012400088F9A0460EE0B94606E05046FFF7DCFDFF
:1012500009F101001FFA80F9B145F6DD08F101003E
:101260001FFA80F8A845EEDD8021D34801F071F91E
:10127000BDE8F08710B50246002008E0A1F1200388
:1012800000EB0313CD4CE35C1354431CD8B210287D
:10129000F4DB10BD30B502460B46002121E001EB26
:1012A0000114C74D15F814401D78AC4217D101EB5D
:1012B0000114C34D05EB440464785D78AC420ED153
:1012C000002009E001EB0114BD4D05EB4404A41C12
:1012D000245C1454441CE0B22028F3DB30BD4C1CC9
:1012E000E1B26429DBDB002003E000241454441C39
:1012F000E0B22028F9DB00BFF0E730B502460B462C
:10130000002127E001EB810404EB4114AD4D15F8F9
:1013100014401D78AC421BD101EB810404EB411455
:10132000A84D05EB440464785D78AC4210D10020F0
:101330000BE001EB810404EB4114A24D05EB4404E6
:10134000A41C245C1454441CE0B24828F1DB30BDDA
:101350004C1CE1B26429D5DB002003E000241454C6
:10136000441CE0B24828F9DB00BFF0E72DE9F04368
:1013700004460D4616461F46301B00F0FF08781B3A
:101380001FFA80F929462046FFF7D8FE2146502053
:10139000FFF734FD04EB0800401E81B25120FFF737
:1013A0002DFD29465220FFF729FD05EB0900401EBF
:1013B00081B25320FFF722FDBDE8F0832DE9FF5FE6
:1013C00005460E4617469846DDF838B006F110007F
:1013D00083B205F10800C2B231462846FFF7C6FFC6
:1013E000FFF707FD59466846FFF744FFEA464FF00E
:1013F000000918E000240EE09AF800008021214145
:10140000084203D14046FFF7FFFC02E03846FFF7F1
:10141000FBFC601CC4B2082CEEDB0AF1010A09F1E6
:10142000010000F0FF09B9F1100FE3DB80216248F1
:1014300001F08FF8BDE8FF9F2DE9F84304460D4603
:1014400090469946089E4FF400615B4801F081F890
:1014500000BF16F8017B4B464246294620460097BE
:10146000FFF7ACFFE82C03DA04F10800C4B209E08E
:10147000B5F5987F04DA002405F1100085B201E08B
:101480000024002530780028E3D180214A4801F06B
:1014900060F8BDE8F8832DE9F04F89B005460E46A7
:1014A00017469846DDF848B006F1100083B205F102
:1014B0001000C2B231462846FFF758FFFFF799FCEB
:1014C000594601A8FFF7E6FE0DF1040A4FF00009A6
:1014D00018E000240EE09AF8000080212141084223
:1014E00003D14046FFF790FC02E03846FFF78CFC42
:1014F000601CC4B2082CEEDB0AF1010A09F10100FC
:1015000000F0FF09B9F1200FE3DB80212A4801F048
:1015100020F809B0BDE8F08F2DE9F84305460E46E6
:1015200017469846DDF820904C461CE043463A4664
:10153000314628460094FFF7AEFF2078202801D1DD
:10154000641C00E0A41CE02D03DA05F11000C5B214
:1015500009E0B6F5987F04DA002506F1100086B29E
:1015600001E00025002620780028DFD1BDE8F883BF
:101570002DE9F84F05460E4690469946DDF828A01D
:1015800054463CE02078802821DA27784B464246B2
:10159000314628460097FFF711FF641CE72D03DA58
:1015A00005F10800C5B22AE0B6F5977F0CDC0025EE
:1015B00006F1100086B222E0001401400200002073
:1015C000F20500203A1300200025002617E04B46C4
:1015D0004246314628460094FFF75DFFA41CDF2DEC
:1015E00003DA05F11000C5B209E0B6F5977F04DC17
:1015F000002506F1100086B201E0002500262078C3
:101600000028BFD1BDE8F88F2DE9F04F93B0054613
:101610000E4617469846DDF870B006F1180083B202
:1016200005F11800C2B231462846FFF79FFEFFF7CA
:10163000E0FB594601A8FFF760FE0DF1040A4FF0E8
:10164000000918E000240EE09AF8000080212141F2
:10165000084203D14046FFF7D7FB02E03846FFF7C8
:10166000D3FB601CC4B2082CEEDB0AF1010A09F1BD
:10167000010000F0FF09B9F1480FE3DB8021FE48CB
:1016800000F067FF13B0BDE8F08F2DE9F843054681
:101690000E4617469846DDF820904C4629E0D72D97
:1016A00001DA012000E00020B6F5937F01DC012182
:1016B00000E0002108420CD043463A463146284615
:1016C0000094FFF7A1FF2078202801D1641C00E0DE
:1016D000A41CD72D03DA05F11800C5B209E0B6F550
:1016E000937F04DC002506F1180086B201E0002596
:1016F000002620780028D2D1BDE8F8832DE9FC47E8
:1017000006460F46904699460A9D03241BE075B194
:101710000A2095FBF0F100FB11503030C1B2601E81
:1017200001AA11540A2095FBF0F0C5B209E0032C80
:1017300004D02021601E01AA115402E030208DF84F
:101740000600601EC4B2002CE1DC00208DF807000A
:1017500001A84B464246394600903046FFF708FF45
:10176000BDE8FC872DE9FE4306460F4690469946A4
:101770000A9D05241BE075B10A2095FBF0F100FBE2
:1017800011503030C1B2601E01AA11540A2095FBDD
:10179000F0F085B209E0052C04D02021601E01AADA
:1017A000115402E030208DF80800601EC4B2002CF5
:1017B000E1DC00208DF8090001A84B46424639467D
:1017C00000903046FFF7D4FEBDE8FE832DE9FF47C9
:1017D00006460F46904699460C9D0A2419E065B1CD
:1017E0000A20B5FBF0F100FB11503030611E01AA58
:1017F00050540A20B5FBF0F509E00A2C04D0202152
:10180000601E01AA115402E030208DF80D00601E08
:10181000C4B2002CE3DC00208DF80E0001A84B467A
:101820004246394600903046FFF7A2FEBDE8FF87EA
:101830002DE9F05F06460F4614461D46DDF8289058
:10184000A01B00F0FF0AE81B1FFA80FB681C83B294
:10185000601CC2B239463046FFF788FDFFF7C9FA6F
:101860004FF40061844800F074FE4FF0000804E07B
:101870004846FFF7C9FA08F101080AF101000BF127
:10188000010148434045F3D880217B4800F061FEC8
:10189000BDE8F09F2DE9F04104460D46164605F1DE
:1018A000100083B204F10800C2B229462046FFF7B7
:1018B0005DFDFFF79EFA4FF400616F4800F049FEAE
:1018C000002703E03046FFF79FFA7F1C802FF9D3F3
:1018D0008021694800F03DFEBDE8F081F8B504467E
:1018E0000D4616462B462246294620460096FFF70F
:1018F0009FFFF8BD2DE9F04105460E4614461F46F0
:10190000701C83B22819401CC2B231462846FFF72A
:101910002DFDFFF76EFA00BF3846FFF775FA601E1F
:1019200084B2002CF8D18021534800F012FEBDE8AB
:10193000F0812DE9F04105460E4614461F46DDF8BC
:101940001880701C83B22819401CC2B23146284648
:10195000FFF70CFDFFF74DFA00BF032094FBF0F1F9
:1019600000FB114018B93846FFF74EFA02E0404636
:10197000FFF74AFA601E84B2002CEED180213E4867
:1019800000F0E7FDBDE8F0812DE9F04105460E4687
:1019900014461F463019401C83B2681CC2B231463F
:1019A0002846FFF7E3FCFFF724FA00BF3846FFF7AD
:1019B0002BFA601E84B2002CF8D180212E4800F052
:1019C000C8FDBDE8F0812DE9F04105460E461446FC
:1019D0001F46DDF818803019401C83B2681CC2B263
:1019E00031462846FFF7C2FCFFF703FA00BF032089
:1019F00094FBF0F100FB114018B93846FFF704FAE8
:101A000002E04046FFF700FA601E84B2002CEED1DF
:101A10008021194800F09DFDBDE8F0812DE9F047D7
:101A200004460F4615461E46DDF820A0F01B1FFA9F
:101A300080F8281B1FFA80F908F101018AB2E0B290
:101A400053463946FFF7A0FF08F101018AB2E8B218
:101A500053463946FFF798FF09F101018AB2E0B217
:101A600053463946FFF746FF09F101018AB2E0B259
:101A70005346314602E0000000140140FFF73AFFF0
:101A8000BDE8F0872DE9F05F8046894615461E4681
:101A9000DDF828A000270024A34609EB060083B246
:101AA00008EB0500C2B249464046FFF75FFCFFF76E
:101AB000A0F905FB06F04FF6FF7101EA400B00BFED
:101AC000601C1AF800704FF6FF7000EA07271AF83A
:101AD000040007433846FFF797F9A01C84B25C4521
:101AE000EEDB8021024800F034FDBDE8F09F0000ED
:101AF0000014014008B50121042000F0B7FB0D20BF
:101B0000ADF8000003208DF8020010208DF80300CE
:101B10006946FC4800F072FC0220ADF80000482045
:101B20008DF803006946F74800F068FC0121F5488C
:101B300000F00FFD0421F34800F00BFD0821F148EF
:101B400000F007FD08BD08B50121282000F08EFB3C
:101B50000121ED4800F021FD2820ADF80000032010
:101B60008DF8020010208DF803006946E74800F068
:101B700045FC1020ADF8000048208DF803006946B0
:101B8000E24800F03BFC4820ADF8000003208DF84F
:101B9000020010208DF803006946DD4800F02EFC9D
:101BA0004021DB4800F0D5FC0821D94800F0D1FCE9
:101BB00008BD08B50121082000F058FB4FF4F040A3
:101BC000ADF8000003208DF8020010208DF803000E
:101BD0006946CE4800F012FC4FF40040ADF800001A
:101BE00048208DF803006946C84800F007FC4FF410
:101BF0000061C64800F0ADFC4FF48041C34800F0DE
:101C0000A8FC4FF40051C14800F0A3FC4FF48051F0
:101C1000BE4800F09EFC08BD08B50121282000F058
:101C200025FB0121B84800F0B8FC2820ADF80000E1
:101C300003208DF8020010208DF803006946B34898
:101C400000F0DCFB1020ADF8000048208DF8030008
:101C50006946AE4800F0D2FB4820ADF800000320F2
:101C60008DF8020010208DF803006946A84800F0A6
:101C7000C5FB4021A64800F06CFC0821A44800F0F8
:101C800068FC08BD10B50446012C06D0022C07D014
:101C9000032C08D0042C0CD108E0FFF7BDFF09E0AD
:101CA000FFF787FF06E0FFF74EFF03E0FFF722FF95
:101CB00000E000BF00BF10BD70477047704770471D
:101CC00000B5012806D0022807D0032808D0042830
:101CD0000CD108E0FFF7F3FF09E0FFF7EFFF06E0A4
:101CE000FFF7EBFF03E0FFF7E7FF00E000BF00BFF7
:101CF00000BD10B504462046FFF7C4FF10BD70B507
:101D00000446002500BF17E014F0800F04D0202106
:101D10007E4800F01EFC03E020217C4800F01BFC04
:101D20006006040E0821794800F015FC0821774868
:101D300000F00FFC681CC5B2082DE5DB70BD70B566
:101D400000250024082522E00821704800F001FC4D
:101D50007048007820B908216C4800F0FCFB0BE0CB
:101D60006D480088FEF773FE0821684800F0F3FB19
:101D700069480088FEF76BFE6006040E1021634878
:101D800000F0CDFB08B144F00104681EC5B2002D7F
:101D9000DADC08215D4800F0DCFB204670BD70B540
:101DA00006460C4600252046FFF7A9FFFFF7C7FFB0
:101DB0000546284670BD584A1180704770B50446E4
:101DC0004FF40051514800F0C6FB00251BE004F021
:101DD0008000802804D101014C4800F0BAFB04E0E7
:101DE0004FF40061494800F0B6FB6006040E4FF462
:101DF0008041464800F0AFFB4FF48041434800F07B
:101E0000A8FB681CC5B2082DE1DB4FF400513F4828
:101E100000F09FFB70BD70B504464FF480513B4805
:101E200000F099FB00251CE004F00040B0F1004FE9
:101E300005D14FF40061354800F08BFB04E04FF40E
:101E40000061324800F087FB64004FF480412F4866
:101E500000F081FB4FF480412C4800F07AFB681CB5
:101E6000C5B2202DE0DB4FF48051284800F071FB13
:101E700070BD70B500244FF48051244800F06BFB16
:101E8000002512E04FF48041204800F062FB4FF43F
:101E900080411E4800F05FFB64004FF400411B4886
:101EA00000F03DFB0443681CC5B2202DEADB4FF473
:101EB0008051164800F04DFB204670BD70B50546B8
:101EC0000C462846FFF77AFF2046FFF7A4FF70BDB7
:101ED00010B504462046FFF771FFFFF7CAFF10BD9B
:101EE00070B50446002525E00821064800F033FBC4
:101EF00004F08000802811D10421024800F029FB61
:101F000010E000000008014000023000000C014019
:101F1000001401406A1600206816002004211848A9
:101F200000F019FB6006040E0821154800F011FBB3
:101F3000681CC5B2082DD7DB70BD70B5002513E055
:101F40006006040E08210E4800F003FB08210C482F
:101F500000F001FB02210A4800F0E1FA012801D15A
:101F600044F00104681CC5B2082DE9DB204670BDB1
:101F700010B504462046FFF7B3FFFFF7DEFF10BDA4
:101F80000008014010B5FEF742FF4FF6FF70FFF763
:101F900016F90220FFF7ADFEFEF740FC10BD000071
:101FA000DB48006840F00100D949086008464068F5
:101FB000D8490840D649486008460068D6490840D4
:101FC000D34908600846006820F48020086008466D
:101FD000406820F4FE0048604FF41F00886070479E
:101FE000CB49096821F48031C94A1160114609685A
:101FF00021F480211160B0F5803F03D0B0F5802F2F
:102000000ED106E0C249096841F48031C04A11602E
:1020100007E0BF49096841F4A021BD4A116000E012
:1020200000BF00BF704710B501460022002300200A
:102030004A11012A02D1B64C236806E0022A02D1D5
:10204000B34C236A01E0B24C636A01F01F02012421
:1020500094401C4201D0012000E0002010BD70B56A
:1020600000240025002600BF3120FFF7DCFF0646D4
:10207000641CB4F5A06F01D0002EF5D03120FFF71D
:10208000D2FF08B1012500E00025284670BD0146B9
:1020900000209F4A106820F0F80040EAC10010605C
:1020A00070479E490860704702460020984B586868
:1020B00020F47C1042EA01031843954B58607047A6
:1020C00096490866704701460020914A506820F002
:1020D00003000843506070478D48406800F00C00D2
:1020E0007047014600208A4A506820F0F0000843FB
:1020F0005060704701460020854A506820F4E06037
:1021000008435060704701460020814A506820F41F
:10211000605040EAC1005060704729B17C4A527A51
:1021200002437B4B5A7204E0794A527A8243784BDD
:102130005A7270477A490860704701460020744A15
:10214000506820F440400843506070470021754AB1
:1021500011706F4A82F82010012802D0042808D19B
:1021600003E001216F4A117004E005216D4A1170EE
:1021700000E000BF00BF70476B49086070476449CA
:10218000096A0143624A116270476749443908602D
:10219000704730B500210022002400235C4D6D689B
:1021A00005F00C0121B1042905D0082923D105E04F
:1021B0005E4D056022E05D4D05601FE0544D6D6889
:1021C00005F47012524D6D6805F48034022505EB5C
:1021D00092421CB9564D554305600BE04C4D6D685D
:1021E00015F4003F03D0524D5543056002E04F4DBA
:1021F0005543056002E04D4D056000BF00BF444DF2
:102200006D6805F0F00109094A4D6B5C0568DD4019
:1022100045603F4D6D6805F4E061090A454D6B5C12
:102220004568DD4085603A4D6D6805F46051C90A26
:10223000404D6B5C4568DD40C560354D6D6805F40B
:102240004041890B3C4D6B5CC568B5FBF3F50561FE
:1022500030BD29B12E4A526902432D4B5A6104E028
:102260002B4A526982432A4B5A61704729B1284A46
:1022700092690243264B9A6104E0254A926982439F
:10228000234B9A61704729B1214AD2690243204BFE
:10229000DA6104E01E4AD26982431D4BDA6170475D
:1022A00029B11B4AD2680243194BDA6004E0184A8C
:1022B000D2688243164BDA60704729B1144A12691A
:1022C0000243134B1A6104E0114A12698243104B16
:1022D0001A61704714494039086070470F49C86453
:1022E00070470B49C87170470948406A40F08070D8
:1022F00007494862704701460020054A92680A4231
:1023000001D0012000E00020704701498872704729
:10231000001002400000FFF8FFFFF6FE00004242FE
:10232000D8004242201002408004424200127A004B
:1023300000093D006B1600207B16002010B50446F6
:10234000CA48844208D101210420FFF7A9FF0021D7
:102350000420FFF7A5FF46E0C548844208D10121CB
:102360000820FFF79DFF00210820FFF799FF3AE0C2
:10237000C048844208D101211020FFF791FF0021BD
:102380001020FFF78DFF2EE0BB48844208D10121C9
:102390002020FFF785FF00212020FFF781FF22E0AA
:1023A000B648844208D101214020FFF779FF00217F
:1023B0004020FFF775FF16E0B148844208D10121A3
:1023C0008020FFF76DFF00218020FFF769FF0AE002
:1023D000AC48844207D101218015FFF761FF00213D
:1023E000A015FFF75DFF10BD10B501210846FFF7EE
:1023F00057FF00210120FFF753FF10BD2DE9F041E9
:10240000024600250026002000230024002791F822
:1024100003C00CF00F0591F803C01CF0100F03D09F
:1024200091F802C04CEA050591F800C0BCF1000F1C
:1024300031D0146800202BE04FF0010C0CFA00F3AF
:10244000B1F800C00CEA03069E4220D183004FF091
:102450000F0C0CFA03F7BC4305FA03FC4CEA040426
:1024600091F803C0BCF1280F06D14FF0010C0CFA13
:1024700000FCC2F814C00AE091F803C0BCF1480F98
:1024800005D14FF0010C0CFA00FCC2F810C0401C42
:102490000828D1D31460B1F800C0BCF1FF0F34DDBF
:1024A000546800202EE000F1080C4FF0010808FAF3
:1024B0000CF3B1F800C00CEA03069E4221D1830060
:1024C0004FF00F0C0CFA03F7BC4305FA03FC4CEA7F
:1024D000040491F803C0BCF1280F05D100F1080CE9
:1024E00008FA0CF8C2F8148091F803C0BCF1480F48
:1024F00007D100F1080C4FF0010808FA0CF8C2F8F7
:102500001080401C0828CED35460BDE8F0814FF6FF
:10251000FF710180022181700421C1707047024661
:10252000002093680B4201D0012000E0002070479A
:102530000146886880B2704702460020D3680B428B
:1025400001D0012000E0002070470146C86880B239
:10255000704701617047416170470AB1016100E055
:1025600041617047C16070474FF480320A43826115
:102570008161826182698269704702460020424B14
:1025800018684FF68073184040EA021008433E4B2B
:10259000186070473D49C8617047F0B50A4600238E
:1025A00000240021002500F00046B6F1004F02D1C2
:1025B000354EF16901E0344E7168C0F3034583B2D2
:1025C00000F44016B6F5401F08D121F070612E4E80
:1025D000766826F070662C4F7E6012E000F480165C
:1025E000B6F5801F06D1032606FA05F4A14341F093
:1025F000706106E0460D360103FA06F6B14341F07C
:10260000706122B1460D360103FA06F6314300F03F
:102610000046B6F1004F02D11B4EF16101E01A4EA7
:102620007160F0BD30B500228B071C0F0F2303FA39
:1026300004F2154B08338C1053F824309343124C9A
:1026400008348D1044F8253023468C1053F824307C
:102650008C07240F00FA04F423430B4C08348D102C
:1026600044F8253030BD0A49086070470008014031
:10267000000C01400010014000140140001801400E
:10268000001C0140002001400000014000002042E9
:10269000DC00204230B943F2DB014FF0204242F827
:1026A000201005E043F2D2014FF0204242F8201002
:1026B0006FF07042411C4FF0204343F82120114637
:1026C0001A4602EB8002C2F80411704710280AD1A2
:1026D00018214FF020421166402151664FF0FC3125
:1026E0009166D16610E01821F84A11604FF0400160
:1026F0004FF02042C2F884104FF0FC31F44A1160D0
:102700004FF02042C2F88C1070471820F149086041
:102710004FF000004FF02041C1F8A4004FF0FC3012
:10272000ED49086001F10401086001F1040108604D
:102730007047D0E901121143C26811430269114385
:102740004269114382691143C2691143026A11430C
:10275000426A1143826A1143C26A1143026B1143F8
:102760004FF02043026843F822108168082908D1FD
:102770001A46016852F8211041F04001026843F8FE
:102780002210416B0968426B526841EA0211426BA8
:10279000926841EA0221426B928941EA0241426B0E
:1027A000128A41EA0251426B127D41EA0261426B98
:1027B000926911430268521C4FF0204343F82210E3
:1027C000C16AB1F5804F1AD1816B0968826B52687A
:1027D00041EA0211826B926841EA0221826B128AFD
:1027E00041EA0251826B127D41EA0261826B926979
:1027F0001143026803EB8202C2F8041108E06FF093
:1028000070414FF02043026803EB8202C2F80411CA
:10281000704730B5002100220023446844F00804CA
:1028200085682C43C5682C4305692C43456944EAF7
:102830004524856944EA4531C4692468C5696D68E1
:1028400044EA0524C5692D8944EA0544C5692D7B00
:1028500044EA0562046A2468056A6D6844EA05244E
:10286000056A2D8944EA0544056A2D7B44EA05631F
:102870000468102C05D14FF020442166A266E3665F
:1028800007E0924C21604FF02044C4F88820934C1C
:10289000236030BD016841F01001426841EA4221E5
:1028A000826841EA42318B4A1160C1680968C26896
:1028B000526841EA0221C268128941EA0241C268B3
:1028C000127B41EA0261844A116001690968026968
:1028D000526841EA02210269128941EA0241026911
:1028E000127B41EA02617E4A1160416909684269CE
:1028F000526841EA02214269128941EA0241426971
:10290000127B41EA02614FF02042C2F8B0107047DA
:10291000002101600221416000218160C1600161EC
:1029200041618161C16101624FF48051416249009E
:1029300081620021C16201630F21426B1160426B11
:102940005160FF21426B91600F21426BD160426B5D
:102950001161426B51610021426B91610F21826BC9
:102960001160826B5160FF21826B91600F21826B3D
:10297000D160826B1161826B51610021826B916128
:10298000704710210160002141608160C1600161D8
:1029900041618161FC21C2691160C2695160C269F3
:1029A0009160C269D160026A1160026A5160026A74
:1029B0009160026AD16070470021016041608160CE
:1029C000FC21C2681160C2685160C2689160C2682F
:1029D000D160026911600269516002699160026907
:1029E000D1604269116042695160426991604269F7
:1029F000D160704751B14FF0204252F8202042F090
:102A000001024FF0204343F8202009E04FF020421C
:102A100052F82020334B1A404FF0204343F8202037
:102A2000704799B1102808D14FF02042126E42F041
:102A300004024FF020431A661DE0244A126842F057
:102A400004024FF02043C3F8802014E0102809D17D
:102A50004FF02042126E234BDB1E1A404FF02043F2
:102A60001A6608E0194A12681F4B02EA03024FF087
:102A70002043C3F88020704740B11649096841F0EF
:102A800004014FF02042C2F8A01008E01149096883
:102A9000154A01EA02014FF02042C2F8A010704727
:102AA00099B1102808D14FF02042126E42F0400236
:102AB0004FF020431A662DE0044A126842F04002AB
:102AC0004FF02043C3F8802024E00FE0800000A0F6
:102AD000880000A0A00000A0A80000A08C0000A01A
:102AE000AC0000A0FEFF0F00FBFF0F00102808D174
:102AF0004FF02042126E684B1A404FF020431A6686
:102B000008E0664A1268644B02EA03024FF0204371
:102B1000C3F88020704701460020102903D14FF0F0
:102B20002042506F01E05E4A1068704710B5F2B164
:102B3000102807D14FF020435B6E0B434FF0204429
:102B4000636632E0B0F5807F08D1564B1B6843EADC
:102B500001034FF02044C4F8843026E0524B1B6838
:102B600043EA01034FF02044C4F8A4301DE01028CC
:102B700007D14FF020435B6E8B434FF020446366D8
:102B800013E0B0F5807F08D1464B1B6823EA0103B0
:102B90004FF02044C4F8843007E0434B1B6823EA1D
:102BA00001034FF02044C4F8A43010BD10B5024614
:102BB00000200023102A03D14FF02044636E07E069
:102BC000B2F5807F02D1374C236801E0364C236890
:102BD0000B4201D0012000E0002010BD102807D1D9
:102BE0004FF02042526E8A434FF020435A6613E062
:102BF000B0F5807F08D12B4A126822EA01024FF01B
:102C00002043C3F8842007E0274A126822EA010221
:102C10004FF02043C3F8A420704770B5024600204F
:102C2000002300240025102A03D14FF02046736EA4
:102C300007E0B2F5807F02D11A4E336801E01A4EE8
:102C4000336803EA010403EAD10514B10DB1012090
:102C500000E0002070BD102808D14FF02042526ED5
:102C600022EAD1024FF020435A6613E0B0F5807F8C
:102C700008D10C4A126822EAD1024FF02043C3F86F
:102C8000842007E0084A126822EAD1024FF020436C
:102C9000C3F8A42070470000BFFF0F00800000A011
:102CA000940000A0840000A0A40000A00021002047
:102CB000674A126842F48032654B1A6000BF644A6A
:102CC000126802F40030491C10B9B1F5A06FF6D1BA
:102CD0005F4A126812F4003F01D0012000E000209A
:102CE000012842D15B4A126842F01002594B1A6027
:102CF0001A46126822F003021A601A46126842F05D
:102D000002021A60524A5268514B5A601A4652687F
:102D10005A601A46526842F480625A601A465268F3
:102D200022F47C125A601A46526842F4E8125A6041
:102D30001A46126842F080721A6000BF444A126854
:102D400012F0007FFAD0424A526822F00302404B50
:102D50005A601A46526842F002025A6000BF3C4A6A
:102D6000526802F00C02082AF9D1704710B5FFF73B
:102D70009DFF10BD10B53648006840F00100344991
:102D800008600846406834490840314948600846B0
:102D90000068324908402E4908600846006820F45F
:102DA000802008600846406820F4FE0048604FF428
:102DB0001F008860FFF7DAFF4FF0006028490860C5
:102DC00010BD10B5002100200022214B5B6803F0EC
:102DD0000C0121B1042906D0082928D107E0214B94
:102DE000214C236027E01F4B1F4C236023E0184B2E
:102DF0005B6803F47010164B5B6803F480320223A7
:102E000003EB904022B9194B4343174C23600DE06C
:102E10000F4B5B6813F4003F04D0144B4343124C38
:102E2000236003E00F4B43430F4C236003E00D4B43
:102E30000D4C236000BF00BF054B5B68C3F3031359
:102E40000B4CE15C084B1B68CB40074C236010BD6A
:102E500000100240002002400000FFF8FFFFF6FED5
:102E600008ED00E000127A008016002000093D0005
:102E7000841600200948804709480047FEE7FEE71E
:102E8000FEE7FEE7FEE7FEE7FEE7FEE7FEE7FEE71A
:102E900004480549054A064B70470000752D000897
:102EA0003101000810170020101D0020101900200B
:102EB00010190020704770477047754600F028F8D9
:102EC000AE4605006946534620F00700854618B017
:102ED00020B5FFF7DDFFBDE820404FF000064FF0C2
:102EE00000074FF000084FF0000B21F00701AC463F
:102EF000ACE8C009ACE8C009ACE8C009ACE8C0095E
:102F00008D4670470446AFF300802046FDF777F901
:102F100000487047B016002001491820ABBEFEE7FC
:102F200026000200704700004FEA1153A3F58063AA
:102F3000D3F11E03A8BFD3F1200C08DB4FF00042F1
:102F400042EAC12252EA505232FA03F07047094273
:102F50000BD4102BC4BF0020704703F5787CBCF164
:102F6000FF3F05D04FF0FF3070474FF00000704733
:102F700070B500F0C3F800BF49922480002070476C
:102F8000F0E7B0FA80F310FA03F10AD0C3F11D03A1
:102F900003F580634FEA41504FEA035202EBD1211F
:102FA00070474FF000007047DFF848C170B51CEA69
:102FB000111E1EBF1CEA13159EEA0C0F95EA0C0F9A
:102FC00000F06F8081EA030423EA4C134EEAD47EBA
:102FD00021EA4C1141F4801143F48013AE44A1FB6B
:102FE000024CA0FB0365AEF17F7E361955EB0C0554
:102FF000A1FB034C4CF10003A0FB021C16EB0C06DA
:10300000654153F10003094218BF46F0010613F46D
:10301000007F0BD14FEA03314FEA0530340341EA18
:10302000155140EA16506FF003020AE04FEAC3213F
:103030004FEAC520F40241EA555140EA56506FF07C
:10304000020202EB2E4201EB025585EACE710AD054
:103050005FEA440C18BF24F0004450F1000041F135
:10306000000120EAD47040F2FE7C624500D270BDBF
:10307000A84214BF4FF080444FF04044002E08BFD8
:103080000024BEF1806FA8BFA1F1C041BDE870402F
:1030900080F282804FF0000001F1C04101F0004158
:1030A00070479EEA0C0F0CEA131518BF95EA0C0F37
:1030B00006D04FF0000081EA030E0EF0004170BD13
:1030C00000F01CF88900013E00F007B800F009B8D4
:1030D0004FEA430C5FEA5C5C08D081EA030100F030
:1030E0005BB84FEA410C5FEA5C5CF6D14FF0000040
:1030F000014970470000FF070000F87F0EF1020E43
:103100002EF0030E5EF8046B364205D4012A43EB21
:10311000030515F5001F12D8012841EB010C1CF521
:10312000001F0CD80ED14FEAD17C15F5001F0CEB17
:103130004C0C0CF1020C08BF4CEBD37C04E04FF0BC
:10314000080C01E04FEAD37C0CEB4C0526FA05F69F
:1031500006F00706B6F1040C06D20EEB860CBDE8AD
:1031600070404CF0010C6047DFE80CF0090B0202E4
:103170004FF000414FF00000A1F5002170BD19464D
:103180001046012851EB010418BFD4F5001484BF88
:10319000002001F0004170BD0808A0F500114FEAC1
:1031A00031017047C431000800000020941600006F
:1031B0006C010008BC3C0008941600207C0600004E
:1031C000C8010008110213054A100121331818E53F
:1031D000123624482808242424FE48484804392F5D
:1031E000280C385454503018141454543836115094
:1031F0000C44A4A8A8A8541A2A2A2A441A30293010
:1032000008506EA494888976C5606020C04D020481
:1032100008087125080804022B40200A29015D10C6
:10322000102040913DD63838D65C79A14AFEA3D112
:10323000A95B02137F4360603D01020204743C20DD
:103240002040604C182442012A24F0195F4A7090F3
:103250005410107C1A3C1B19326D1020427E105005
:10326000090418040202424438500C040C142424AB
:1032700044447E04041E8F7E4040405864202B1C32
:10328000241089606C7E4444F379603A2485523C72
:10329000390B4E261A020224402913393A490649AD
:1032A000A449063310202A029C87402010080402FB
:1032B0005AFE0451491B392569701A620F6A085079
:1032C0001D38445AAA016AB4B0500C1010182828AE
:1032D000243C444242E71EF8444444780E5442449D
:1032E000F82D3E4242800169302AF81C29015920FC
:1032F000B80CFC424848784848404242FC104C40D8
:1033000040E0801B44443E5C8E8444402AE73C2AD3
:103310007E0549706B7C10014A7C707A0801338805
:10332000F0500CEE444850705048484444EE1AE0C7
:103330005A39014A42F31BEE6C012A540152D65805
:103340000CC7626252524A4A4A4646E2F04A820139
:1033500059802AFC7B2A7C4149A059206EB2CA4C74
:103360003806202A7C6F4B42E390180842424020E6
:1033700018040216516BFE92B099D039016A3C10C4
:10338000500944242428281810101BD692015FAA43
:10339000AA6C44444420480A2424181818242442BF
:1033A000E7C09D4444282850300C7E84040808104F
:1033B00020204242FC6A1E6D2901321E1D40402021
:1033C000200B1008080804040402029B780801225C
:1033D00078031C1C2212FF0512606020C050083CBC
:1033E000421E2242423F1FC04040405864CF936477
:1033F000581B1C221553221C2D060202022E9C4231
:10340000261B40567E4040423C3E0F1110107EAFBE
:10341000927C38083E444438403C422229601B5C80
:1034200062405342E72330309A70301B0C0C701905
:10343000DD19011A44D1393050084E4850684844CB
:10344000EE492CC9602BFE490192ED9ADC6049A03F
:10345000290149A0412AD8E075447840E039D07567
:10346000221E02071CEE3220018AF8C06E42403C48
:10347000024270197A398019A9712AC65F93463BB6
:103480009008E74224242810109008D79292AAAA04
:103490004444C8086E241818182476306C1810108C
:1034A0009030087E44081010227E2B0304013A0855
:1034B00006130403DA0801113A608A192E29011251
:1034C00060D4304C43100CD0A310401020102011B9
:1034D000FEFC180F108831043A025488508890502E
:1034E000105016181D5010881306D7BC01404120FB
:1034F000212023FE022016201BFC1220222023FC68
:10350000E206190813FE22120214B7F9101411FE74
:10351000101D7CF854880213F854180B55FC5524E0
:1035200055245DFC112402180CFC1104D6B508408A
:1035300008400FFC6C380D4033F8320853F89208FD
:1035400013F812041C12081F3C14D5BC0139025A8E
:10355000FE08116D3FF8200802290C1CBFD5021689
:10356000200B7FFE40028824101020086B1FF02CD7
:10357000191822FC13B1C82B802002380A84208835
:1035800020903EA020C00E200A8020822682388211
:10359000207E2BC6B5AA180C50205C4051FC51046B
:1035A000FF2401A029AA1E5544845008FE3DC202F2
:1035B000C2CA6613FC02100B44442F881110224823
:1035C0004FE41320017AFF9813C1E81008404040EF
:1035D00023F82040101B4007FE111012882484E1BC
:1035E000F0231024A0204020A023100C0CD6C720CC
:1035F000180E3E7C48440844FF441444227C40AAF0
:103600001A100189066BB5E7E42B21080299081608
:103610000A0102010224FED7D3137FF812101220F0
:10362000AC400180802902120512021025D4D8086E
:103630002008287F240820FFFE10201024FF2420CB
:103640002448287F2808100F12F82A08460882B25A
:10365000A82023202020102013FE822242244A206A
:103660000BFC12841288E248225022202450248825
:103670000906D0F20115803FFE2019D01B1020C290
:1036800018082FFE2042204420E2154040814014BB
:1036900080C1D0180D047F84080408241F2411243D
:1036A00021021E52248A240402180B08041004204C
:1036B000144008D0CEAA680E841204120812101208
:1036C000221202FFC40A101422042208421082604F
:1036D000C4A31110111017FC1110FC101913F832AB
:1036E000083BF8560853F8904017FC10A011101230
:1036F000081406CABD12481A44021440FFFE1240C4
:103700002D403E400802100A2008220F12780A209D
:1037100006480802D7EE1FF01010042114FFFE2205
:1037200010143EF822883E9022502F20F2504288FA
:103730000306B4F30169022BFFFE0618080280029B
:103740008004400448101210102008C006B2D9238B
:10375000F82208220823F8F8180A27BC24A42CA46D
:1037600037BCE0F2100E216022502448B846404099
:10377000D7F7092902280E11FE12803280348050BA
:10378000F8908010023AFC0619021BC6AB0619BA63
:1037900010082404240467FC6412A4180A27FC26D9
:1037A000A42AA42BFC2A062732A4220CB5F7180E53
:1037B00047FC2444244405F40444E444272C181210
:1037C00025F425142D1435F4240404140808D6C651
:1037D000043E1E24043FA444072BFFE40D1C3FA419
:1037E00024021C26842522250408C9E8100C21F097
:1037F000111011100110020EF4101C13F811081111
:1038000010109014A0184010A003180C06D6C37F07
:10381000FC44447FFC012904AD1FF010100423FF79
:10382000FE23D5FD291C490212111B11F80479024F
:10383000292213CFD2101F40F82008200BFE084089
:1038400078404088410843F07820084008880904FF
:103850000BFC5104201CBBF908204F7FFC08200FF3
:10386000E004280BFFFE082011102108CFE65618AF
:10387000083FF8B4F809200922290619703FFE41D3
:103880000281041FBA2D115011202424B6C801282A
:103890000A803FFE222022203FFC061423E020184D
:1038A000272FF02410422041C08630380EB0B410CB
:1038B000401020102013FEFA02144410401BFE306A
:1038C00088D088110810D01618085050882304BCDE
:1038D000FC1F1019103B7C211441FE7A14A27C2796
:1038E00010F97C251025FE22102A10351A28CC1438
:1038F000CCE110380811FC11041104FD061415FC6C
:1039000018201133FED0201120113C112052A02488
:103910007ECABE833FF82BFFFE9C19A61C0821041B
:10392000B4130205120213C8B71240181540FC7CEC
:103930001084110822FE3C92649264FEA4922492A8
:10394000240C10092512210A0204C8CF1C40204073
:10395000AE1928112B40F00A2AA002100D151019DB
:1039600010120804040802D1A11809402240124094
:1039700013F804221BF7FC801902100812241224E9
:10398000141C281A47AA14D4F120181427F8220866
:103990002110F0A0204021B0264E3040E3F82058FE
:1039A000101227FC2040A0404040D0C5084008200D
:1039B0000BFE1012101431FC3012502B91FC0C49EC
:1039C000E0290623BAC53C1FF010012B1FF0CE1AC8
:1039D0000820190A2927121012A04C40B7A2DE12A3
:1039E00022143FFC021204180A07F80A08090811F9
:1039F000101074180940A003181C06C9FA223902D5
:103A0000143FFC211241128112011C3FF8010629CA
:103A1000021AFFAA23C6F768173E7C224422443EBE
:103A20007C01200110FFFE02800C603018C00616D9
:103A300013B7B51708203C13C0121202481103FC3B
:103A4000F204128812501220125014881504EE232A
:103A5000BBD8680B3FF82008200827C82448022B51
:103A600027C812291801FF01FF01FF01FF01FF0113
:103A7000FF01CE43C1E822042203120210093002E2
:103A800030187FF81A02130A02101E02020C05FDFC
:103A9000F004386004683808CC0C0918440A1FE0A8
:103AA0003830C010488010851311071330071410E8
:103AB000098036307803C01C4BD6C7492903101D36
:103AC00012080FFBFC088208118208019A083FFEC9
:103AD000080182080363F8023208041A220815312B
:103AE000FFE0015A40036BFFC0091915326073B53E
:103AF000E722185A10037F0FFFF008102003FC0F75
:103B0000FFE00F19273A0803120413180C330FF8BB
:103B100083D7D3192322F0195E2A80EA3A145C294C
:103B2000036D0C7FFFFE0C0912031946423083D54A
:103B3000FD19BF1A1C7029086903130308280B021A
:103B40000810020838020FC0020CD90360080802EE
:103B5000081C3DF7E073CFD21202130181131F81BD
:103B6000100901800C01FFF001831311831B1F86D4
:103B7000BF1010301008203018603F9FC0019080A7
:103B800001011A012A5010062001041801080C0333
:103B90003FFC0E18040463D0C51303061303031F70
:103BA00002030806FFFC1A2A0C031D101C3FE0E666
:103BB00012242610447FF8441918580A04201804C7
:103BC0003FF004201003690C315ABA4A12021D401A
:103BD00003FFC0067903390F31150C3FFFF022C0F7
:103BE0001A80AF1C60017FCC6A4003191612C01303
:103BF0001F80420773B7A2122168110660C00C60D3
:103C0000600840601840081FFFFC102B11138060F3
:103C1000100EFFE001A0400110C00309800209134B
:103C20000606130406180C080D801030E020403EF4
:103C30004380C31143C9FA199E12181302181303C3
:103C400018130618100C0418100418380BFFC008BD
:103C5000183A10031320181D401860079D2A182ACF
:103C60009903650C7FFFFE63C6F71308044F0FE747
:103C7000F00C663003390C12201339C01620483F6F
:103C8000FFFC12C21501818003480BE00C203E3777
:103C9000E7F8046430031C07E7F006193C3112060C
:103CA00042012D0102030404200906070809020449
:0C3CB00006083BA24A20691D29190000EB
:0400000508000131BD
:00000001FF
